:0400000080310D2816
:100008007E1480318231902280318331C9237E1061
:1000180009008B31AD2B21004808013E2000D70094
:10002800033057020318D70157082100C8002000E1
:100038006617C22842192228C21D23284E281030CC
:100048004305D70043080139570403193028BB0179
:10005800400889312A21C00001308A319C2A421D7A
:100068003A284430EA008230EB000800C21D3D28DF
:100078004E2810304305D7004308013957040319A7
:100088004B28BB013F0889312A218031BF0000304D
:100098008A319C2A3808860087013F088100380A7F
:1000A80086004008810066178C31EE248031C2201A
:1000B8006C30EA008230EB000800421D7A280730D5
:1000C800BB01BD0A3D060319BD01DC015C08C93E40
:1000D800860087010108DA000330DA053B1D9728FE
:1000E8003D085C06031D9728D701A028431D8C28CE
:1000F800BB013D08C93E860087010108013ED900C1
:100108000330D9053D08C93E860059088100692891
:10011800C21D69286C30BD01EA008230EB00661709
:10012800C2208C31EE2C5A08203E840082300318FD
:10013800013E85000008D700D8015C08233E8600F0
:100148008701570881000730DC0A5C02031C6A2813
:100158003D0809070907A43EDB0086000108A00046
:100168005B088600413FA1005B08023E860001084B
:100178001038A2008F31F727A00408000030671854
:100188000130CF00210048082000D0000230500282
:100198000318D2286710501C142913292C083F393A
:1001A800D2002D080739FF3ED10051080319E42871
:1001B8005108CD00FF30CE01CD07031CCE03E72840
:1001C8000630CD00CE014D08CC00510822218031E7
:1001D8004808D4004708D3004C0822218031480839
:1001E800D6004708D50056085502D501031CD6018C
:1001F80054085302031C02292430D4006710530802
:100208005202031C0B2954085202031C14295508D6
:100218005202031C132956085202031C142967149E
:100228002000671C1C294F08031D1C29E71408001F
:10023800671808004F08031DE7150800CA00C93EE3
:10024800860087010108CB004B08031D342928309C
:10025800840082308500003FC700013FC8000800C5
:100268004B0B3F29210051082000C80021005008ED
:100278002000C700080002304B06031D4C2921004E
:1002880053082000C800210052082000C7000800B9
:100298002A30840082308500003FC700013FC80033
:1002A8000800383427341D340C345A34493438346F
:1002B800933471346034C634B53493348234713431
:1002C8006034B534A434933482346034C634B534DD
:1002D800A434823471346034C634A4349334823400
:1002E8007134C634B534A434933471346034C634AC
:1002F800B5349334823471346034B534A4349334CF
:1003080082346034C634B534A434823471346034F1
:10031800C634A434933482347134C634B534A43426
:10032800933471346034C634B534933482347134C0
:100338006034B534A434933482346034C634B5346C
:10034800A434823471346034C634A434933482348F
:100358007134C634B534A434933471346034C6343B
:10036800B5349334823471346034263410342734ED
:1003780010342834103429341034303410343134E3
:100388001034013411340234113403341134043478
:10039800113405341134063411340734113400345F
:1003A8000034003400340034003408340334093491
:1003B8000334103403341134033412340334133443
:1003C800033414340334013404340234043403345D
:1003D800043404340434053404340634043407344F
:1003E80004340034003400340034E73482346B348D
:1003F800AB348E34AD34ED348334EF34AF34003461
:10040800003400340034003400340034033402343F
:10041800053400340334053401340434063402341A
:1004280004343134283431343034313430343134D4
:100438003134303431343034203482346B3429341C
:10044800083410342834213424342534003400345A
:10045800A734073496340434C73405344A34033493
:1004680096340734AA340734C23405341B340734AD
:10047800A434073449340734DD3405346134003496
:10048800DD3405341E340034D234053433340034BA
:10049800C234053442340634C23405349134053448
:1004A800DD34053424340834C2340534DE340634EB
:1004B800C234053493340634DD340534FD3406344F
:1004C800DD34053460340534DD340534B0340834A3
:1004D800C23405343D340434C2340534EB340534B5
:1004E800C234053423340534C2340534B9340634EF
:1004F800C2340534E0340434C234053417340634C5
:10050800BE34053450340834CC34053468340334EC
:10051800C7340534593403348B1A0B1D08000B11EA
:10052800200035083604031D9E2A21005908DA00E8
:10053800D901A92A023036063504031DA92A21004B
:100548004508C600C501200066152000B61CAE2A65
:10055800C030AF2AD430FD00B922B50A0319B60A53
:10056800FF30B5050330B6050800C600043E860016
:1005780087010108252382317108F5007008F4000D
:1005880020004608023EF600760886008701403FB4
:10059800F700413FF80078087502031DD52A77084F
:1005A80074020318DE2AD92ADE2A0130F702003045
:1005B800F83BEB2A75087802031DE42A74087702D1
:1005C8000318EB2AE82AEB2AF70A0319F80A76082F
:1005D800860087017708C03F7808C13F4608860033
:1005E8008701403FF900413FFA004608023E860075
:1005F800403FFB00413FFC007A087C02031D062BAC
:1006080079087B0203180800460886008701460817
:10061800023E8400850100080102C40046088600E5
:10062800453FC500450A03191E2B14304402031C1C
:100638001E2BC50A4608053E86008701450881002D
:100648000800F3007308031D362B22000C16210046
:100658000C120D309D0022008E1121008E118E1576
:100668001D30422B22008E1521008E111D309D0059
:1006780022000C1221000C120C160D309D009D1446
:100688001C08F100F0011B08F0040800421C4E2B66
:100698002F30C1008830C7008230C800F830C90048
:1006A8000A30CA0088238A31732A421C5D2B2F30F6
:1006B800C1003030C7008230C8007330C9000A302A
:1006C800CA0088238A31042A8C30C7008230C800C7
:1006D8000430C9000A30CA0088238331263020003C
:1006E8002A0603192B18862B8C30E615B1008230A8
:1006F800B2000430B3000A30B4002C30EA00823073
:10070800EB0008008A31F82AE7113A08031D922BFA
:100718003C30E611EA008230EB000800C319992B3F
:100728009A303E020318992BE718EC01C21DA22B40
:100738007430E611EA008230EB0008004219A62B5B
:10074800431DAC2BE6114808EB004708EA000800F7
:10075800410BBD2BE61DA72B4808B2004708B10086
:100768004A08B4004908B3002C30EA008230EB0094
:100778000800671C080021005B08031D08004708E3
:10078800031D08002000BE0A08002000911C080074
:100798009110F83022008C05FC308E052000E61CF4
:1007A8000E1D0800F82B0530F100043004240C1548
:1007B80008000730F100023004240E140800093044
:1007C800F100003004248E1408000630F1000330D4
:1007D80004248C1408000830F100013004240C149F
:1007E8002000BC01B90A08003C08BC0A8400053096
:1007F800040203180800873104356A3E82000800A5
:10080800F50022000E120F3020003905F2003A08D8
:10081800720203182A2C7508203E860087010108F9
:10082800322483317108203E860087010108F600D2
:100838004239F200F2357608F3004230F336730598
:10084800F40076083939740472042E2C00303224EE
:1008580083310030322422000E160800F0002400F4
:10086800951370089100951B332C141C392C110812
:100878000800421D492C9A30C1000330BB01BD0A53
:100888003D06031D682CBD01682C431D602C3D08E6
:10089800031D522C4030EA008230672C3D0B562C49
:1008A800D0305B2C02303D06031D682CD230B800D6
:1008B8004830EA008230672CC219642C410B682C3E
:1008C8003430EA008230EB003B1D6D2C3D080319E3
:1008D800762CEA30A100CF30A200AE30A300AD30B4
:1008E800A4007A2CA401A301A201A1013B1D802C24
:1008F8003D0B802CC901822C8230C900CA014908ED
:10090800A6003B1D8D2C02303D06031D8D2CCB010E
:100918008F2C6B30CB00CC014B08A8008F31F72708
:10092800A00008004108D3000730D3052030D200CA
:1009380007305302031C521706305302031CD21708
:1009480005305302031CD21504305302031C521500
:1009580003305302031CD21402305302031C5214F6
:1009680008304102031CC52CD0015008203E8600E7
:100978008701520881040A30D00A50020318D92C82
:10098800B92C661634088A0033080A00843120001E
:10099800D1015108203E860087015209EF398104B0
:1009A8000A30D10A5102031CCD2C410B0800320831
:1009B800EB003108EA0008003630DB000730DC00C5
:1009C8008030DD008230DE00883106208431AD3091
:1009D800A1006D30A2005F30A3003B1D122D1D2D1C
:1009E800E730A501A601A7004D30A800A90008001E
:1009F8004D30A5006430A600CF30A700AD30A80068
:100A0800CE30A9000800AD30A500E730A60064305C
:100A1800A7008230A800EA30A90008003708033987
:100A28008400043004020318080087310435743E3A
:100A38008200A901A801A701A601A50108000F309D
:100A4800DB000030DC007830DD008230DE008831E9
:100A580006208531AD30A1006430A2006D30A300BE
:100A6800A4004F30A5003B1D4E2D592DE730200026
:100A7800A7004D30A8004C2D2000E730A701A800A2
:100A8800C7304C2DAD302000A7006530A800DE30FF
:100A9800A9005C2D210048088400043004020318D2
:100AA8005C2D873104357C3E8200A901A801A7018D
:100AB8008F31F727A0000800421D6D2D4008DB008C
:100AC800DC013F088D3187257830EA008230EB0061
:100AD8000800C21D742D3430EA008230EB00080093
:100AE80010304305DE00430801395E040319802DE8
:100AF800BB0140088325C00002308A31332ACD006B
:100B0800593A03198D2D4D0889311B218531CB00A8
:100B18008E2DCB01CC014B0808000230DB000830D9
:100B2800DC007C30DD008230DE0088310620853133
:100B3800FA30A100BD30A2007C30A3003B19B52DCE
:100B4800371FAE2DCF30A600E630A7006C30A800C6
:100B5800E730B32DE730A601A7004D30A800A90063
:100B6800B92DA601A701A801A901B71F08000430E3
:100B7800A0000800C2253008BF000800E0259A3010
:100B8800BB01C1000800E0252F306616C10008002F
:100B9800E0256616E611C101BE010800DD2538080A
:100BA800860087010108BF0038088600413FC00061
:100BB8000800E025BB010800A001A101A201A301D2
:100BC800A401A501A601A701A801A9010800903068
:100BD800DB000730DC003830DD008230DE00883191
:100BE800062085313B190A2EAD30A1006D30A200D8
:100BF8006C30A300AD30A401A5006530A600CE304E
:100C0800A7006D30A800FA30A900132EA101A20197
:100C1800A301A401A501A601A701A801A9018F317B
:100C2800F727A00008005B30DB000730DC005C30F1
:100C3800DD008230DE00883106208631AD30A1002B
:100C48006D30A2005F30A300AD30A4006C30A50069
:100C5800AE30A6006430A7006D30A8003B19402EC6
:100C6800370C890C0339243E840082300318013E76
:100C780085000008A9000800A9010800A030DB00D1
:100C88000730DC005030DD008230DE00883106207D
:100C98008631EA30A1008230A200AD30A3005F3077
:100CA800A4003B19662EB71E5D2E8230A6006B305D
:100CB800602E6B30A6008E30A700CC30A8004830DC
:100CC800A9000800A601A701A801A901080000348D
:100CD8000034003400340034AD34E034D834823485
:100CE800C734E834D83400348334E0347F34823471
:100CF800E2346F34FA3400348334CC34F0340034C2
:100D08004D34483450340034AD34EB347C34003442
:100D180000340034003401340034003400349C3092
:100D2800DB000730DC007030DD008230DE00883107
:100D380006208631EA30A100CF30A2006C30A30033
:100D48006D30A400AD30A5006D30A6005F30A7005F
:100D58003B19B72E371AB22E0830B32E1030DF00E9
:100D6800E001A9000800A9010800421DC02E583062
:100D7800EA008230EB000800431DC72E6030EA000D
:100D88008230EB00D02EC219CB2E410BD02E34303E
:100D9800EA008230EB0008002C083F39BF002B081E
:100DA800C00030088F3155276711031867150030C8
:100DB8008A31332A421DE52E8430EA008230EB0066
:100DC8000800431DEC2E6830EA008230EB00080072
:100DD800C219F02E410BF52E3430EA008230EB00B8
:100DE80008002F081F39BF002E08C00000308931C5
:100DF800DA29421D042F6430EA008230EB00080033
:100E0800C21D0B2F3430EA008230EB00080010308E
:100E18004305CE00430801394E040319182FBB01BE
:100E28003F0889312A21BF0001308A31332A9630A0
:100E3800DB000730DC007430DD008230DE008831F2
:100E4800062087313B19312FEA30A100E730A20094
:100E5800C730A3006D30A4000800A101A201A301BE
:100E6800A401080037080339C700C7033708470635
:100E7800FC394706B7000339023A031D472F3708E4
:100E8800FC390138B700E6170800E710421D43197E
:100E98004F2FE71D080022008E1610302000EC00AE
:100EA8008830BA01BA0AEA008230EB000800370C31
:100EB800C700470C0339C700C70AC70DC70D370855
:100EC8004706F3394706B700E61708008331D72BE2
:100ED8008331DD2B8331E32B8331E92B8331EF2BF6
:100EE8008431F42C8531072D8431F42C8431FC2C89
:100EF80085313A2D8531402D8531462D8531462D58
:100F0800FE0012001E00FE0B852F003464008001D5
:100F18000131890B8B2F00346C30BD01EA0082301F
:100F2800EB0008008830E710EA008230EB00080088
:100F38001030B706E61708002030B706E617080095
:0E0F480022008E1208000F30C10008000800C1
:101004004030B706E6173C2F421D0F285E08EB0060
:101014005D08EA00D4248831EE2C431D1A289A3046
:10102400C100BB015C088A005B080A008831080023
:10103400C2191F284103031D08003430EA0082301E
:10104400EB000C28421D31284008DD003008DE008A
:101054003F08A0258430EA008230EB000800C21D5E
:1010640038283430EA008230EB00080010304305A1
:10107400E10043080139610403194E280030BB0123
:1010840067190130CC003F0884218831E200CB008D
:1010940040080C218831C0000230DA29421D5D2845
:1010A4004C30EA008230EB002E08DD003F08DE0001
:1010B4002F081F39A02D10304305E10043080139E2
:1010C4006104031984289A30C100BB013F084521FB
:1010D4008831BF00AE30A1006D30A200CF30A30034
:1010E4004530A4003B197F282030CA00063058231D
:1010F40088313F08CA000830582BA901A801A7016C
:10110400A6010800C2198828410B6C283430EA0073
:101114008230EB002E08DD003F08DE002F081F3967
:10112400A02D661C0800371FAA280030B71B013009
:10113400E1003C2788316108031DB71BA428522114
:101144008831AA2861080319B71FAA28DB2088312F
:101154000F30C8010B26200066100800421DB72876
:101164005430EA008230EB000800C21DBE2834303F
:10117400EA008230EB00080010304305CE0043083B
:1011840001394E040319D928BB013F08372188319E
:10119400BF00003067190130CC003F08842188313A
:1011A400CF0040084F020318D9284F08C00001306F
:1011B400DA292C083F392A218831DF002C06C0396E
:1011C4005F06AC003F39031D0B29300855278831D1
:1011D400003003180130CC002F081F3984218831D6
:1011E400E000CB002E080C218831AE002E0B0B2919
:1011F4002F081F3937218831DF002F06E0395F06B9
:10120400AF001F39013A031D0B29300845218831ED
:10121400B000AE2CCE004B084E02031816294E081F
:101224001B218831CC001829CC01CC0ACD014C08F3
:101234000800CA000F39C700093A03192429C80154
:10124400C80A26290730C800C9014A084807080007
:10125400CD00233A031933294D081B218831CB00D3
:101264003429CB01CC014B080800CD00123A0319F4
:1012740040294D081B218831CB004229CB01CB0AE0
:10128400CC014B080800CD00993A03194E294D08AA
:101294001B218831CB004F29CB01CC014B0808001E
:1012A4002C083F399D218831DF002C06C0395F06A8
:1012B400AC003F39233A031D83292E0B7E292F08C6
:1012C4001F39B6218831DF002F06E0395F06AF00F1
:1012D4001F39123A031D72293008C2218831B00027
:1012E400300855278831003003180130CC002F080E
:1012F4001F39842188318229CA012E08CE218831E0
:10130400AE00AE2CCD004C0803198C2902304D06DA
:10131400031929344D1E90290630CD020B304D029D
:10132400031831344D08143E840082300318013E02
:10133400850000080800CC004C080319A5294C08B6
:10134400A9218831A6292330CA00CB010800C9008D
:101354000F390319B029C701C70AB2290730C700DA
:10136400C801470849020800CC004C030319BE29F0
:101374004C08A9218831BF291230CA00CB010800CA
:10138400CC004C080319CA294C08A9218831CB295F
:101394009930CA00CB010800CD004D030319D629AA
:1013A4004D08A9218831D7294A08CB00CC0108006F
:1013B400CC003B1DE0294C080319E329A6238831FE
:1013C400E629A101A201A3013B1DEB294C0303194A
:1013D400F1293F08CA00053058238831F329A501B3
:1013E400A6013B1DF92902304C060319FF294008C8
:1013F400CA00083058238831012AA801A9010830FD
:10140400A70008002000661E2B2A2D0807390907AB
:101414000907A03ECC00860087010108A0004C0803
:101424008600413FA1004C088600423FA2004C08C0
:101434008600433FA300A4012F081F397423883179
:10144400CA000530582388312E08CA0008305823B2
:101454008831371A302A0830A7000800A701261659
:1014640008002000CC003B1D3A2A4C0803193D2AF1
:10147400A6238831402AA101A201A3013B1D452ACC
:101484004C0303195B2AB71E552A3F088D23883164
:1014940074238831CA000530582388313F088223D9
:1014A4008831A9005E2A3F08CA00053058238831D4
:1014B4005E2AA901A601A5013B1D642A02304C063F
:1014C40003196A2A4008CA000730582388316C2A55
:1014D400A801A7010E1F712A4C080319080026163B
:1014E40008002000661E8D2A2F081F3974238831B6
:1014F400CA000030582388312E08CA00033058230C
:1015040088312030CA000630582388313008CA0098
:10151400083058238831371A972A0530203E860030
:1015240008308701C03FA20008002116A20124163A
:10153400A5010800D0003D030319A22A6B30A32A99
:101544008230CC00CD011038A1003B1DAC2A5008DC
:101554000319C22AB71AB42A3F08CA000330582311
:101564008831C52A3F088D23883174238831CA0005
:101574000230582388313F0882238831A400C52AC9
:10158400A401A301A2013B1DCA2A50030319EB2A9B
:10159400B71AD22A4008CA00073058238831DF2AF4
:1015A40040088D23883174238831CA0006305823BB
:1015B4008831400882238831A80040083F0203187C
:1015C400E52ACE01E72A0430CE00CF014E08A90057
:1015D400EF2AA901A801A701A601B71AF32A083026
:1015E400A6000830A500F727A0000800661E2B2BD4
:1015F400B71E182B2C083F398D238831CE00742355
:101604008831CA000030582388312B08CA000330BF
:10161400582388312A08CA00063058238831A80183
:101624002C083F3982238831A9002A2BA0012C08D9
:101634003F39CA000130582388312B08CA000430CE
:10164400582388312A08CA00073058238831A90151
:1016540066123708033901390319080037080339BA
:101664000239031D0E1F382BCC01432B370C890C78
:101674000339243E840082300318013E85000008AB
:10168400CC00CD014C08CF00B71E502B0530203EB6
:10169400860087014F08C03FA20008000630203EA4
:1016A400860087014F08C03FA3000800CB00203EFE
:1016B400860087014A0E0F39F93E840081300318F1
:1016C400013E8500000881004B08213E86004A083F
:1016D4000F39F93E840081300318013E850000086B
:1016E40081000800C900103049024908C7000318E6
:1016F4007F2BF030C801C704802BC80147080800BD
:10170400C70012304702031C892B4F308A2BCF307D
:10171400C800C9010800C90049080319123413306C
:1017240049020318972B4908080020304906031979
:10173400A12B213049060319A12B1230A22B1830FA
:10174400C700C80149020800AD30A1006D30A200F5
:101754006C30A30008008830E8008230E90088304B
:10176400EA008230EB001030EC006B3084008630ED
:101774008500A03086000030870028308731842718
:1017840088312030E601E7018400003085002430F0
:1017940087318A278831C8308400003085001430AE
:1017A40087318A2788317E102000D82B22008E01B1
:1017B4008D018C0123000C118C100E100C108E1056
:1017C4008E130E110D120E138E150C1622000E160A
:1017D4000E1521000C118C100E100C108E108E138F
:1017E4000D130E110E120D160E178E128E150C16E9
:1017F4007A3099001A1CFC2B002CFC2B1A1EFC2B93
:10180400042CFC2B24001508F0390138950015161A
:1018140014139516D525883121009E1720001C0825
:10182400FC3901389C00FA309B00210091142000FF
:101834001C150B30E5002630E4006630E300E30BB2
:10184400212CE40B212CE50B212C003222008E16D6
:101854000B178B17D430B5268831C030B5268831A4
:10186400210095128B161B26E7106808840069086E
:101874008500013F8A00003F0A008C312000661D6C
:10188400402C6611D43009278831C200C0300927A2
:101894008831C30060278831BB0A410803195B2CD7
:1018A40021005B08031D5B2C4708031D5B2C2000F3
:1018B400C10320006C083A020318622CBA0A662C91
:1018C4003A086C02031CBA036908E4006808E300E0
:1018D400023E840064080318640A8500013F8A00FC
:1018E400003F0A008C3169086B06031D7B2C6808D5
:1018F4006A0603199B2C6B08E9006A08E800840057
:1019040069088500013F8A00003F0A008C312000ED
:10191400C301C2016908E4006808E300023E8400D0
:1019240064080318640A8500013F8A00003F0A0026
:101934008C3121005B080319A22C20002014A42C54
:1019440020002010210047080319AB2C2000A0150B
:10195400402C2000A011402C2E08CB003008CC00D5
:101964002F081F3958268831DD002D06F8395D0609
:10197400AD000E1EBB2C22000E118030FB258831D9
:101984002000DE015E082A3E860087010108FB254F
:10199400883120000730DE0A5E02031CC42C2200BA
:1019A4000E151B2EE61F08001830C8010B268831BF
:1019B40020000E1EDA2C22000E119930FB258831EE
:1019C40020003708FB25883120003709FB25220039
:1019D4000E152000E6130800661F08000230C80038
:1019E40018300B26883120000E1EF52C22000E1113
:1019F4009930FB2588312000CA01CC014C08C83E2F
:101A0400860087010108CB00FB25883120004B08A4
:101A1400CA070C30CC0A4C02031C002DFF30CA0646
:101A24004A08FB2522000E1520006613080020003A
:101A34001830C8010B26883120000E1E1E2D2200EE
:101A44000E111930FB2588310030FB258831200028
:101A5400CB000030FB2588312000CA0022000E157F
:101A640020004A094B06031D3A2D4B08B700080015
:101A74003708FC390138B7003717E617D42C023081
:101A8400C80018300B26883120000E1E462D220077
:101A94000E111930FB2588312000D801DA010030FD
:101AA400FB2588312000D9005A08C83E86008701EA
:101AB400590881005908D8070C30DA0A5A02031C65
:101AC400512DFF30D8060030FB2588312000D70087
:101AD40022000E152000580857060319852D2100F1
:101AE4000930C801C901CA01CB01CC01CD01CE0125
:101AF400CF01D0001730D1002030D2002330D300E2
:101B040020006617EE248031C228DD000E1E882DC9
:101B140022000E118030FB25883120005C08FB2553
:101B2400883120005B08FB25883120005D08FB25F7
:101B3400883122000E151B2688313C2FE000023A22
:101B4400031DB12D29305D06031DB12D5E085527F7
:101B540088310318B12D0330E000DD01DD0A5D0892
:101B6400CB005E08CC00600858268831DF000E1ECA
:101B7400B92D22000E118330FB25883120005F0827
:101B8400FB25883120005D08FB2588312000600892
:101B9400FB25883120005E08FB25883122000E15C4
:101BA4001B2688313C2F0F30452688310239031912
:101BB400DE2D20006614E02D200066100E1EE02DA0
:101BC40022000E118B30FB2588310030FB25883133
:101BD4000230FB2588318030FB2588310030FB251D
:101BE40088310030FB25883122000E1519258831F3
:101BF400412D2000C700240095132000470824002D
:101C04009100951F072E2000FD2D141C072E11088E
:101C14000800C9000E1E0C2E22000E1120004908D7
:101C24008038FB25883120004808FB2522000E154A
:101C3400080020000E1E1B2E22000E110030FB2572
:101C440088312000D70157082A3E860000308701DA
:101C5400FB258831810020000730D70A5702031C76
:101C6400252E22000E1520000F30E612661645269A
:101C7400883102390319412E20006614432E2000B6
:101C840066108031C2282000C8000E1E472E220094
:101C94000E1120004808FB2588310030FB25200068
:101CA400C90022000E15200049080800DC00AD26FA
:101CB4008831DC004B08AD268831CB004C08AD26BA
:101CC4008831D900D030DA01D9070730DA3D033042
:101CD4005C0203186F2E0130702E0030CD00CE014F
:101CE400D9024E08DA3B4B08CD00CE015C08083E11
:101CF400840082300318013E85000008CF00D00123
:101D04005A08D2005908D100D236D10CD236D10C9F
:101D14004F085107D3005008523DD4004D085307D3
:101D2400D5004E08543DD60059085507D7005A0827
:101D3400563DD800F130D707FF30D83D5708523E02
:101D4400DB0007305B02031CAA2E0730DB02A32E44
:101D54005B08013E0800CA000F39C9004A0E0F395A
:101D64009127490708002000D2008600003087012F
:101D7400C03FC13F8030D001D1005208043E8600EC
:101D840087010108692788314808CC004708CB003F
:101D94005208CD004D0886008701403FCE00413FE8
:101DA400CF004F084C02031DD92E4E084B020318D6
:101DB400E22EDD2EE22E0130CE020030CF3BEF2E9C
:101DC4004C084F02031DE82E4B084E020318EF2E59
:101DD400EC2EEF2ECE0A0319CF0A4D088600870198
:101DE4004E08C03F4F08C13FD00A0319D10A50081A
:101DF4005104031DBF2E5208860087015208023E7B
:101E040084008501403F803F413F813F0800C80076
:101E1400C70186008701473FC9004808063E86007F
:101E2400010F2B2FC90F182F3030C900490B1C2F5D
:101E34004714202F103049060319C71530304902C2
:101E44000318292F1030490203184918342F471654
:101E5400342F49080319332F1030C7144902031CC7
:101E64004715C9014808073E8600870149088100D3
:101E740047080800371B402FD801452F9A2788317F
:101E84000030093DD800D9015808DA00370D370D64
:101E940001395A06031908005A080139B713031DFA
:101EA400B717E617D42CCB00AD268831CB00033905
:101EB40003195E2F03100800031408000E1B672F7C
:101EC400E61E08001B2688319328E6160800CA007F
:101ED4004A08031D7A2F22000C1621000C120D3023
:101EE4009D0022008E1121008E118E151D30862F2B
:101EF40022008E1521008E111D309D0022000C122F
:101F040021000C120C160D309D009D141C0820009D
:101F1400C800C70121001B082000C7040800C8002E
:101F2400C8354808C700C835C835480847070800F9
:101F34003008AD268831CD0064304D02031CA42F37
:101F4400031008004D08553E840081300318013EFB
:101F540085000008CE002C083F39D5002E08D60095
:101F64002F081F39D7002F081F39CB0005304B022B
:101F740002300318DA2FCF004E080F39CB00D930C6
:101F8400CC01CB35CC0D4B07840081304C3D850012
:101F9400003FD000013FD1005702031D0800500844
:101FA4005602031D08004F085502080003140800D8
:101FB400D2004E0E0F39CB00B930CC01CB35CC0D4D
:101FC4004B07840081304C3D8500003FD300013F26
:101FD400D4005702031DF42F53085602031DF42F97
:101FE400520855020318A22FD82F20006718FC2F7F
:0C1FF4000430FD2F4030C700C801080079
:020000040001F9
:04000E00A4EFFFDF7D
:00000001FF
